:100000000C949C010C94BF030C94E3010C94E30149
:100010000C94E3010C94E3010C94E3010C94E301D0
:100020000C94E3010C94E3010C94CA1C0C949D1DE8
:100030000C9485130C94E3010C94E3010C94E301FC
:100040000C94E3010C94E3010C94E3010C94E301A0
:100050000C94E3010C94ED130C94E3010C94E30174
:100060000C94E3010C94E3010C94E3010C94E30180
:100070000C94E3010C94E3010C94E3010C94E30170
:100080000C94E3010C94E3010C94E3010C94E30160
:100090000C94E3010C94E3010C94E3010C94E30150
:1000A0000C94E3010C94E3010C94E3012E001E0078
:1000B0001F002000210022002B0014001A0008005D
:1000C00015001700350004001600070009000A009B
:1000D000E1001D001B0006001900050000000000E3
:1000E00050004F004C412C00000000004D00290042
:1000F000E300E000230024002500260027002D0057
:100100001C0018000C001200130031000B000D0041
:100110000E000F00330034001100100036003700CD
:100120003800015328002A002F0030000000000092
:10013000E2004B004A004E000000000001003A00BF
:100140003B003C003D003E00010001004A0052001F
:100150004D004B0001000100500051004F004E00C7
:10016000005C01000100010001000100000000002E
:10017000520051004C41E100000000002800E20064
:100180002C00E0003F0040004100420043004400DA
:100190004B004A0052004D00010045004E00500047
:1001A00051004F0001000100B200B100B300B500E2
:1001B0000100005C2C002A41010001000000000049
:1001C0004B614E00E200E3000000000032034400F7
:1001D00061006300740079006C002D004D00610027
:1001E0006E00750066006F0072006D0020006B00ED
:1001F0006500790062006F00610072006400000019
:10020000080352004C0053000000040309040902D3
:100210005400030100A0FA090400000103010100D9
:100220000921110100012240000705810308000A8D
:10023000090401000103010200092111010001224A
:100240004D000705820308000A09040200010300AB
:10025000000009211101000122360007058303086F
:10026000000A1201100100000008EDFE60300100DC
:100270000102000105010980A10185021601002685
:1002800003001A81002A8300751095018100C005C2
:100290000C0901A1018503160100269C021A010028
:1002A0002A9C02751095018100C005010902A10177
:1002B0000901A10005091901290515002501950568
:1002C000750181029501750381010501093009312C
:1002D0001581257F95027508810609381581257FCE
:1002E000950175088106050C0A38021581257F9550
:1002F0000175088106C0C005010906A1010507199D
:10030000E029E71500250195087501810295017521
:1003100008810105081901290595057501910295C6
:1003200001750391010507190029FF150026FF003B
:10033000950675088100C00011241FBECFEFDAE0DA
:10034000DEBFCDBF04B603FE27C08091FE019091B1
:10035000FF01A0910002B09101028730904BA740AD
:10036000B04BD1F41092FE011092FF0110920002E6
:100370001092010214BE84B7877F84BF0FB6F89431
:10038000A895809160008861809360001092600061
:100390000FBEE0E0F8E3099511E0A0E0B1E0E2EC87
:1003A000F1E402C005900D92A034B107D9F721E025
:1003B000A0E4B1E001C01D92AE3FB207E1F70E9498
:1003C000011A0C94DF200C940000CF93DF93ABE173
:1003D000B1E041E251E0C1E0D0E08D91E82FE2953B
:1003E000EF70F0E061A18F709E0101C0220F8A952D
:1003F000EAF7922F9095962391A382A1822B82A354
:100400004A175B0751F7DF91CF91089508950C9437
:10041000060208950C9409028091D30183608860DC
:100420008093D3010E94E501A5E1B1E061E070E0B5
:100430008D91E82FE295EF70F0E041A18F709B0164
:1004400001C0220F8A95EAF7922F9095942391A3E9
:1004500082A1822B82A381E0AB31B80749F7559A7C
:10046000209AECE4F1E0A0E4B1E011921D9281E069
:10047000E835F807D1F70C94C7059F92AF92BF9269
:10048000CF92DF92EF92FF920F931F93CF93DF9360
:1004900080910101D0E0C0E0811102C0C6E0D0E04F
:1004A0008BE1E82E81E0F82E8E01005C1E4F680182
:1004B000AA24A394B12C25E0922EF70181917F010B
:1004C000E82FE295EF70F0E021A18F70A50102C046
:1004D000440F551F8A95E2F7CA01922F982B91A3DA
:1004E00092A18095892382A350EA5A95F1F7E5E11C
:1004F000F1E020E050E040E03191A32FA295AF70F1
:10050000B0E090968C9190E03F7002C095958795F1
:100510003A95E2F780FD39C0C501042E01C0880F6D
:100520000A94EAF7282B4F5F5F4F4630510521F7B9
:10053000F60181916F01821721F03197208390920B
:1005400000010E94E501F1E2EF16F1E0FF0609F07B
:10055000B4CF80910001882359F08150809300012D
:100560008823A9F08FE99FE00197F1F700C0000010
:1005700081E0DF91CF911F910F91FF90EF90DF907D
:10058000CF90BF90AF909F90089580E0CBCFC45B99
:10059000DE4F86E0F80191918F0199938150D1F758
:1005A000E7CFCF93DF9380910101D0E0C0E08823B3
:1005B00011F0C6E0D0E00E942404009789F4C45BE7
:1005C000DE4F30E020E0F901E55AFE4F40814993CB
:1005D0002F5F3F4F26303105B1F7DF91CF9108955E
:1005E00081E090E0FACFCF930E943D02C82F0E9495
:1005F000D102892BE1F05D98809158018F5F809343
:100600005801863078F080910101F0E0E0E0882325
:1006100011F0E6E0F0E0E45BFE4F86E090E011923E
:100620000197E9F70E94C9058C2FCF9108955D9A33
:1006300010925801F7CF0E943D0280910101E6E03F
:10064000F0E0882311F0F0E0E0E0E45BFE4F90E0A2
:1006500080E02191DC01A55ABE4F2C930196863093
:100660009105B9F70895E82FF0E0E45BFE4F808133
:1006700008950895E8EDF0E08081806180838AE14B
:100680008A95F1F700C08091D900817008958AE0C1
:1006900090E00E94A92091E0811101C090E0909328
:1006A00001010E943A03882321F00E94B20378944A
:1006B00008950E94B603FBCF0E940C020E941B0308
:1006C000FDCF0E9447030E943A03811102C00E949D
:1006D0005C030895509A08955098589A0895589A2E
:1006E00008950E946C03489BFECF80E88A95F1F73D
:1006F00008950E946C0398E080E029B1880F217072
:10070000822B20E82A95F1F725E02A95F1F70000E1
:10071000915099F708950F931F93CF93082F0E943C
:100720006A03C8E010E0C15020F4CF911F910F91EF
:100730000895C8010C2E02C0959587950A94E2F79A
:1007400080FF06C00E946F0380E88A95F1F7EBCF27
:100750005898FACF0E946A03589880E88A95F1F772
:100760000C946F030E946A030C946F030E946C0345
:10077000E89AE9E6F0E080818C7F808308951F92FB
:100780000F920FB60F921124EF92FF921F932F93A7
:100790003F934F935F936F937F938F939F93AF9309
:1007A000BF93CF93DF93EF93FF930E94AA03D0E010
:1007B000C0E010E0CE01855A9E4F7C01FC01808193
:1007C0000E948B030E94AA03F7018081180F2196D3
:1007D000C630D10579F7812F0E948B030E94AA03AE
:1007E000F0E8FA95F1F780E48A95F1F70E94790331
:1007F00080935A010E94AA03C0915A010E94790372
:10080000D82F0E94AA030E946C0380915901DC1723
:10081000C9F0816080935901FF91EF91DF91CF91F1
:10082000BF91AF919F918F917F916F915F914F9108
:100830003F912F911F91FF90EF900F900FBE0F905F
:100840001F9018958E7FE6CFEF92FF921F93CF9364
:10085000DF93F8940E946A03589825E02A95F1F7EF
:1008600000000E946C030E946F0330E83A95F1F794
:10087000489B09C0789481E090E0DF91CF911F916F
:10088000FF90EF9008950E947103D0E0C0E010E067
:100890000E947903FE01E55AFE4F7F0180830E948A
:1008A0007103F7018081180F2196C630D10581F7B9
:1008B0000E947903C82F0E947103C113DBCF80917E
:1008C0005A010E948B030E94710380915A010E9479
:1008D0008B030E9471030E946A030E946F03789445
:1008E00090E080E0CACF81E0089581E008950C9403
:1008F00075040E94F60C2FEF84E39CE021508040A9
:100900009040E1F700C0000087E797E79093010867
:10091000809300080C9413140F931F93CF93DF93CD
:100920008C01FC01C081D181CE010E94D311BE0196
:100930000E94D405EC01B8010E947704882309F4D1
:1009400050C0B801CE010E94F807882309F449C0BD
:10095000C531FCE5DF07C8F4C2308CE5D80708F0E4
:1009600058C0C115ECE5DE07B9F1C130DC4509F42A
:100970003EC081E08093630180936401C801DF91F0
:10098000CF911F910F910C947304CD338CE5D80750
:1009900009F4DAC0A0F4CC33DC4559F7F8018281C0
:1009A000882309F4BAC0109263010E94B713909390
:1009B00062018093610182E00E94800A12C0C0340B
:1009C0008CE5D807F1F0C134DC4599F6F801828155
:1009D000882339F082E01AC0F801828181110E94D7
:1009E000790480E0DF91CF911F910F910895F80174
:1009F00082818823B1F38091D30181608093D301F8
:100A0000F0CFF8018281882361F380E00E94921A7E
:100A1000E8CFF8018281882309F4B0CF0E94211326
:100A2000811102C00E9407130E94341390E090933A
:100A3000F0018093EF01FE01E350FC458091EF014E
:100A40008160E231F105C8F4E85DFA4F0C948F2023
:100A50003A0546054A054E05520556055A055E05F6
:100A6000620566056A056E05720576057A057E05DE
:100A7000820586058091EF0182608093EF0180916D
:100A8000EF010E9438130E94F60CABCF8091EF016A
:100A90008460F3CF8091EF018860EFCF8091EF0108
:100AA0008061EBCF8091EF018062E7CF8091EF0111
:100AB0008064E3CF8091EF018068DFCF8091EF0108
:100AC0008460EACF8091EF018E7FD7CF8091EF01D4
:100AD0008D7FD3CF8091EF018B7FCFCF8091EF01BE
:100AE000877FCBCF8091EF018F7EC7CF8091EF01C1
:100AF0008F7DC3CF8091EF018F7BBFCF8091EF01BE
:100B00008F77BBCF8091EF018B7FEACF9091EF0180
:100B1000892F97FB87F98058B0CF809163018111AD
:100B20000FC080916101909162010E94C313883CC3
:100B3000910530F486E20E94710986E20E94310A32
:100B400082E00E94870A4DCFF8018281882351F00C
:100B5000109264010E94B713909362018093610127
:100B600080E22ACF8091640181110FC080916101E0
:100B7000909162010E94C313883C910530F487E292
:100B80000E94710987E20E94310A80E2DACF0C9458
:100B900007020C940A0208950C94CB050C94CC0522
:100BA00090E080E008950895972F70E026E0929FEE
:100BB000600D711D1124FB0198E4899FE00DF11D6A
:100BC0001124EE0FFF1FE455FF4F85919491089576
:100BD000FC01EE0FFF1FE453FE4F859194910895A1
:100BE0000E94D4050E947707811520E4920708F03F
:100BF0008DC0811540E3940708F0F6C0803E910552
:100C000008F071C0803C910508F0DAC0883A91057F
:100C100080F4853A910508F0D8C08130910509F437
:100C20006EC020F08430910508F069C090E080E04B
:100C300008958D3B9105D0F7883A910509F418C1C4
:100C4000893A910509F417C18A3A910509F416C148
:100C50008B3A910509F415C18C3A910509F414C138
:100C60008B3B910509F413C18C3B910509F412C12A
:100C70008D3A910509F411C1803B910509F410C129
:100C80008E3A910509F40FC18F3A910509F40EC10E
:100C9000813B910509F40DC1823B910509F40CC11A
:100CA000833B910509F40BC1843B910509F40AC10A
:100CB000853B910509F409C1863B910509F408C1FA
:100CC000873B910509F407C1883B910509F406C1EA
:100CD000893B910509F405C18A3B910509F004C1DE
:100CE0008AE296E408958F3F910509F048F4803F29
:100CF000910508F075C0883E910508F097CF0895DA
:100D0000811520E2920708F06DC00895811544E531
:100D10009407A8F5811523E5920708F086C0811590
:100D200041E5940710F5811520E5920708F466C0A7
:100D30009C0144E0369527954A95E1F7922F9370F0
:100D4000482F437021E030E002C0220F331F4A9544
:100D5000E2F73C68392B86958695837040E2849F44
:100D6000C0011124822B932B0895811542E594072D
:100D700008F047C0982F8827816F906A08958115E1
:100D800026E5920750F4382F22278115954508F45F
:100D900060C0C90188279F7111C0811528E592079D
:100DA00008F444CF811549E5940708F456C09C0126
:100DB00030569F712115304208F038CF9062089567
:100DC000805C91090E94E8050895853A910509F42F
:100DD00049C0863A910509F448C083E890E4089533
:100DE000906508959F70EECF9C01332793FF03C059
:100DF000C901986C0895C901906C08959F70906A1C
:100E00000895AC014370552721E030E002C0220F65
:100E1000331F4A95E2F78695869540E2849FC0018C
:100E20001124822B932B9C680895AC0143705527A5
:100E300021E030E002C0220F331F4A95E2F7869589
:100E4000869540E2849FC0011124822B932B9A68DF
:100E50000895C901846F906A0895982F8827806F3C
:100E6000906A089581E890E4089582E890E40895F6
:100E700082EE94E4089589EE94E408958AEE94E471
:100E8000089585EB94E4089586EB94E4089583EB4C
:100E900094E4089584EB94E4089587EB94E4089532
:100EA0008CEC94E408958DEC94E4089583E895E443
:100EB00008958AE895E4089582E995E4089584E91F
:100EC00095E4089581E296E4089583E296E4089516
:100ED00084E296E4089585E296E4089586E296E435
:100EE000089587E296E4089580E094E408CF82387C
:100EF000910549F1B0F48133910509F45CC048F4DF
:100F00008932910509F452C08A32910509F458C01A
:100F100008958533910509F444C08933910599F00A
:100F20000895833E910531F138F4803E910591F0AA
:100F3000823E9105B1F00895863E910511F1873EFC
:100F4000910541F108952091EF012370C9F080EEE1
:100F500090E008952091EF0120FF12C089E390E016
:100F600008952091EF0122FF0BC024FF2EC090E0D6
:100F700080E008952091EF0122FD2AC024FDF7CFE3
:100F800008952091EF0123FFFBCF24FDF0CF87EEE2
:100F900090E008952091EF0123FFF0CF86EE90E0DE
:100FA00008952091EF0125FD16C008952091EF01CD
:100FB00025FD14C008952091EF0126FD12C008956B
:100FC0002091EF0126FD10C0089583EE90E0089572
:100FD00082EE90E0089589E290E0089585E390E044
:100FE00008958AE290E0089581E390E0C9CF0895E2
:100FF0000F931F93CF938C01FB018281811106C057
:10100000C1E08C2FCF911F910F910895C091720173
:10101000C11125C005311C4599F70E94F70781E0F1
:10102000809372010E94B7139093710180937001B5
:101030001092650110926701109266011092690189
:101040001092680110926B0110926A0110926D016A
:1010500010926C0110926F0110926E01D2CF8091AC
:101060007001909171010E94C313883C910540F674
:1010700080916501E82FF0E0EE0FFF1FEA59FE4F67
:10108000118300838F5F80936501C0E0BACF909396
:101090007801809377010895E0917701F0917801CC
:1010A000309721F00190F081E02D099480E00895BF
:1010B000E0917701F0917801309721F00280F3817F
:1010C000E02D09940895E0917701F091780130972F
:1010D00021F00480F581E02D099408952091750197
:1010E000309176012817390771F09093760180933B
:1010F0007501E0917701F0917801309721F0068039
:10110000F781E02D099408952091730130917401C5
:101110002817390771F09093740180937301E0915F
:101120007701F0917801309721F00084F185E02D6E
:10113000099408950C9461030E94AE130E940C025E
:101140000C942414BF92CF92DF92EF92FF920F93F0
:101150001F93CF93DF93CDB7DEB72A970FB6F894DE
:10116000DEBF0FBECDBF0E94F3028AE7C82E81E02A
:10117000D82E10E000E0B02E802F0E943303E82E1E
:10118000F601F1906F01F81609F45AC08091D3016D
:1011900081FD0E94390390E080E0FE242F2D30E095
:1011A000482FB901082E02C0759567950A94E2F799
:1011B00060FF41C08E83BF8281E090E06C0102C07D
:1011C000CC0CDD1C4A95E2F72E2D30E02C213D2180
:1011D000232B09F480E088870E94B7138160782F61
:1011E0009A8789874E815F8168858A850E94470931
:1011F000F801E658FE4F80818C2580830E94B71548
:101200000E944C0890917901891789F10E944C083D
:10121000809379012A960FB6F894DEBF0FBECDBF3A
:10122000DF91CF911F910F91FF90EF90DF90CF90C2
:10123000BF900C94CE0501968630910509F0B0CF91
:101240000F5F1F4F0C30110509F095CF8FEF898389
:101250008A831B820E94B7138160782F9D838C83C1
:1012600049815A816B818D810E944709C7CF2A9697
:101270000FB6F894DEBF0FBECDBFDF91CF911F91A7
:101280000F91FF90EF90DF90CF90BF900895CF9394
:10129000DF93CDB7DEB72B970FB6F894DEBF0FBE46
:1012A000CDBF4F83588769877A878B871E821D82BF
:1012B00085E0FE013796DE01119601900D928A9528
:1012C000E1F749815A816B817C818D819E812B96CA
:1012D0000FB6F894DEBF0FBECDBFDF91CF910C9457
:1012E000A80FCF93C82F882309F4B9C0823879F4A6
:1012F0000E944C0881FDB3C089E30E9452120E94F3
:10130000D81289E30E946F12CF910C94D8128338BF
:1013100059F40E944C0880FDA2C083E50E9452123D
:101320000E94D81283E5EECF843859F40E944C080D
:1013300082FD95C087E40E9452120E94D81287E471
:10134000E1CF8CEF8C0F813A48F48C2F0E94D31799
:10135000811185C08C2F0E945212D6CF80E28C0F53
:10136000883048F4C77081E001C0880FCA95EAF759
:101370000E948F12C9CF8BE58C0F833068F481E80F
:1013800090E0C53A31F083E890E0C63A11F482E883
:1013900090E0CF910C946E0888E58C0F853108F0B1
:1013A0005EC082EE90E0C83A09F456C089EE90E043
:1013B000C93A09F451C08AEE90E0CA3A09F44CC027
:1013C00085EB90E0CB3A09F447C086EB90E0CC3A4D
:1013D00009F442C083EB90E0CB3BF1F184EB90E069
:1013E000CC3BD1F187EB90E0CD3AB1F18CEC90E0C1
:1013F000C03B91F18DEC90E0CE3A71F183E891E041
:10140000CF3A51F18AE891E0C13B31F182E991E0B4
:10141000C23B11F184E991E0C33BF1F081E292E03B
:10142000C43BD1F083E292E0C53BB1F084E292E0AC
:10143000C63B91F085E292E0C73B71F086E292E014
:10144000C83B51F087E292E0C93B31F090E080E088
:10145000CA3B11F48AE292E0CF910C948408CF91B8
:101460000895882309F44BC0823871F40E944C0817
:1014700081FF45C089E30E9452120E94D81289E37D
:101480000E946F120C94D812833859F40E944C08B1
:1014900080FF35C083E50E9452120E94D81283E576
:1014A000EFCF843859F40E944C0882FF28C087E4AB
:1014B0000E9452120E94D81287E4E2CF9CEF980F4C
:1014C000913AF0F290E2980F983050F4877091E0E2
:1014D00001C0990F8A95EAF7892F0E949512D2CF01
:1014E0009BE5980F933020F490E080E00C946E0818
:1014F000885A853120F490E080E00C9484080895A7
:10150000882321F00E948F120C94D812089588230A
:1015100021F00E9495120C94D81208958F929F92F8
:10152000AF92BF92DF92EF92FF920F931F93CF93F0
:10153000DF937C01D62FC72FFC01058102950F7028
:10154000128111110E94AE120E944B12D82E8823D4
:1015500071F0112321F180E28D0F883000F182E0DB
:101560000E9435120E944B1291E0D82ED926EC2F02
:10157000E295EF70F0E0E154F54F0C948F20D10A22
:10158000D10A210B210B630B7F0BFE0AFE0A8A0B8B
:10159000FE0A220C220C950CFE0AFE0A9E0CD12C8F
:1015A000E6CF0C2F0F70C07F11F00295007F112342
:1015B000A9F0002359F080E28D0F883010F0D1118E
:1015C00009C0802F0E948F120E94D8128D2F0E9476
:1015D000710914C0802F0E94A012F6CF8D2F0E9497
:1015E000310A002359F080E28D0F883010F0D111BC
:1015F00024C0802F0E9495120E94D812DD2009F489
:10160000A4C10E94281280FDA0C1F70112820E948D
:1016100022120E943711C7010E94B10C0E942212AF
:10162000DF91CF911F910F91FF90EF90DF90BF90CE
:10163000AF909F908F900C945811802F0E94A6120B
:10164000DBCFFC2FFF70BF2EC07FC03219F0B294E9
:1016500080EFB822DD2369F0D13029F1112369F13F
:10166000002359F0F701858180FFB0CF8F7085830B
:1016700004C0112361F0011104C08B2D0E94800A67
:10168000BDCF8B2D0130D1F70E94C212B7CF01110F
:1016900006C00E94C5128B2D0E94870AAFCF013071
:1016A00009F4ACCFF6CF112321F0063008F0A6CF15
:1016B000E4CF053008F0A2CFEECF002361F38D2FE9
:1016C0000E94310A9BCF8C2F86958695837069F096
:1016D000813009F093CF8D2F9C2F9370111102C090
:1016E00090E080E00E94840889CF8D2F9C2F93701A
:1016F000111102C090E080E00E946E087FCF8D2F14
:10170000112329F00E94C0140E94AC1577CF0E94CB
:101710002815FACF8C2F837009F047C011116ECFB6
:101720002D2F229526952770220F220F6D2F6F7077
:10173000862E912CB12CA12C022E04C0880C991C51
:10174000AA1CBB1C0A94D2F760E070E0CB01D4FF66
:101750000FC06FE070E080E090E004C0660F771F7C
:10176000881F991F2A95D2F760957095809590955E
:10177000C695C695C370C23051F080F468297929A6
:101780008A299B29C13071F00E94EB1037CF68295C
:1017900079298A299B290E94FD1030CF0E94EB10E5
:1017A000C501B4010E94D91029CF8695112311F0EB
:1017B0008C2F8170882309F421CF2D2F2295269517
:1017C0002770220F220F6D2F6F70862E912CB12C57
:1017D000A12C022E04C0880C991CAA1CBB1C0A94C4
:1017E000D2F760E070E0CB01D4FF0FC06FE070E093
:1017F00080E090E004C0660F771F881F991F2A952C
:10180000D2F76095709580959095C695C695C370F2
:10181000C23051F080F4682979298A299B29C13086
:1018200071F00E94AE11EACE682979298A299B2994
:101830000E94C011E3CE0E94AE11C501B4010E9406
:101840009C11DCCEE0E2ED0FE53108F062C0F0E083
:10185000E45DF34F0C948F20410C410C410C410C82
:10186000410C410C410C410C410C410C410C410C10
:10187000410C410C410C410C4E0C5C0C630C6A0C8D
:10188000740CDF708C2F8F71112321F00E9437119F
:101890008D2FF4CE0E9458118D2FFECE112341F0D2
:1018A000053008F0ABCE8C2F8F710E947B11A6CE35
:1018B000063008F0A3CEF7CF8C2F8F71112339F0AB
:1018C0000E9437119BCE8C2F8F711123C9F30E9478
:1018D000581194CE112329F08C2F8F710E94221160
:1018E0008DCE0E941D118ACE112349F0CF718C2F0D
:1018F0000E94371163E08C2F0E942C127FCE81E072
:101900000E943512023008F479CE82E00E9435122E
:1019100075CE112329F0011159CE8C2F8F71D0CFA4
:101920000111CDCE8C2F8F71D2CF4C2F4F706D2FD8
:10193000C7010E94D0050E94511060CE4C2F4F70FD
:101940006D2FC7010E94D30559CEDF91CF911F9112
:101950000F91FF90EF90DF90BF90AF909F908F908E
:1019600008950F931F93CF93DF93EC0198818981A2
:101970002B813C81232B39F08F3F19F481E09F3F6D
:1019800019F080E001C081E080FD17C0CE010E9407
:101990008C04882391F0688179818A810E941F12CA
:1019A0008C010E94D2110E94D610B801CE01DF91A5
:1019B000CF911F910F910C948E0ADF91CF911F91BF
:1019C0000F9108950E94AE120E94BF120E948112D0
:1019D0000E94D8120E9459160E94AC1590E080E037
:1019E0000E946E0890E080E00C9484080E949D1292
:1019F0000C94E20C0E941512E92FE295EF70E25070
:101A0000EE30E0F4F0E0E95FF24F0C948F20150D1A
:101A1000150D1E0D1E0D200D1E0D1E0D1E0D150D7E
:101A2000150D250D1E0D1E0D250D803F19F020F4FE
:101A3000803E20F481E00895843FE1F380E0089542
:101A4000803EC0F3813FD1F7F5CF93FB882780F923
:101A50000895CF93DF9300D000D01F92CDB7DEB7AB
:101A60000F900F900F900F900F90DF91CF910895EE
:101A7000CF93DF9300D000D000D0CDB7DEB726964D
:101A80000FB6F894DEBF0FBECDBFDF91CF910895A2
:101A90001F93CF93DF93C091860116E08091870159
:101AA0008C1304C0DF91CF911F910895D0E01C9F4B
:101AB000F0011D9FF00D1124E857FE4F4081518128
:101AC00062817381848195810E94380D2196C7704F
:101AD000E5CF4091B8015091B9016091BA01709180
:101AE000BB018091BC019091BD010C94380D1F93F6
:101AF000CF93DF938091BD01807FD1F48091BA01B3
:101B00008823B1F080918601D0918701B091B8010E
:101B1000C091B9014091BB015091BC01A1E0BF3F10
:101B200009F0A0E0BA016095709516E0D81304C0E2
:101B3000DF91CF911F91089521E04115510521F0CA
:101B40002A2FCF3F09F020E090E020FD38C0189FF9
:101B5000F001199FF00D1124E857FE4F21812C133D
:101B60002EC020812B132BC02281211128C023815C
:101B700034812417350700F1241B350B283C31052F
:101B8000F0F42091BD012F7020612093BD0126E06B
:101B9000289FF001299FF00D1124E357FE4F80810B
:101BA0008F708061808388EB91E00E94B10CDF919F
:101BB000CF911F910C94480D260F371FDFCF019650
:101BC0008770B4CFAF92BF92CF92DF92EF92FF9225
:101BD0000F931F93CF93DF93CDB7DEB761970FB607
:101BE000F894DEBF0FBECDBF8C0185E0F801DE01A9
:101BF0001D9601900D928A95E1F7D8014C911196AE
:101C00005C9111971296EC903091B8016091B901F6
:101C10008091BB019091BC0121E0009731F06F3FB2
:101C200019F421E03F3F09F020E0B22FB170BB2E44
:101C300020FD80C1F801C380D480A090BA01AA2001
:101C400009F427C1C816D906D0F1D601A81BB90BD3
:101C5000CD01FF24F394883C910508F0F12C80918C
:101C6000BD01982F907FFF2009F4CAC0911187C051
:101C7000FE2C651329C0341327C0E11025C08F70D6
:101C800080618093BD010E94690D88EB91E00E9404
:101C9000B10C8091BD01F80185838F2D61960FB63F
:101CA000F894DEBF0FBECDBFDF91CF911F910F9192
:101CB000FF90EF90DF90CF90BF90AF900895809508
:101CC00090958C0D9D1DC5CF81E0CD2831F05F3FF3
:101CD00019F481E04F3F09F080E080FD24C081E0ED
:101CE0008E25F82FF170DF2E80FF3FC08091860196
:101CF0002091870136E0821318C04D875E878D855D
:101D00009E850E941512292F22952F70223008F1EE
:101D1000243030F59F7009F1D80115969C91907F81
:101D2000E1F4FB2CBACF80E0DCCF90E0389FF001EB
:101D3000399FF00D1124E857FE4F6181561306C0FC
:101D40006081461303C062816E110FC001968770D7
:101D5000D2CF9F7011F0882321F3805E883008F382
:101D6000C8010E94B10CBD2CDCCFEE2009F495CF48
:101D70008091BD0181608093BD01F12C8ECF6513F0
:101D800012C0341310C0E1100EC0F8018583C801E1
:101D90000E94B10C86E0F801A8EBB1E001900D9231
:101DA0008A95E1F741C04D875E878D859E850E94AB
:101DB000FA0C882309F4C8C0EE2009F4C5C080914C
:101DC000BD01803270F02091B8013091B90138879F
:101DD0002F831986DB86CA868C87CE0107960E94E0
:101DE000B10C86E0F801A8EBB1E001900D928A9564
:101DF000E1F70E94770D0E94690DFF24F3944DCF07
:101E0000911115C07C2DD98AC88A6E2D89890E94AE
:101E1000290D88EB91E00E94B10C86E0E8EBF1E03F
:101E2000DF011D928A95E9F70E94690D36CF65138F
:101E300012C0341310C0E1100EC0F8018583C80130
:101E40000E94B10CE8EBF1E086E0DF011D928A957B
:101E5000E9F7FA2C22CF4D875E878D859E850E94FB
:101E6000FA0C882309F470C0EE2009F46DC080914B
:101E7000BD01803208F4B5CF2091B8013091B9018D
:101E80003A8329831B82DD82CC828E83CE01019628
:101E9000A6CFC816D90638F1F601E81BF90BCF0119
:101EA000F12C883C910508F03DC0FE2CEE2009F491
:101EB0004BC0651326C0341324C08091BD0180FD42
:101EC00017C0982F907FA1F0D80115968C93159785
:101ED000903F09F45CCF982F907F905F8F70892B93
:101EE00015968C9354CF809590958C0D9D1DD8CFD1
:101EF00086E0F801A8EBB1E001900D928A95E1F738
:101F0000CCCE4D875E878D859E850E94FA0C81110F
:101F100068CF8091BD0181608093BD01C8010E949E
:101F2000B10CBBCE7C2DD98AC88A6E2D89890E94BE
:101F3000290D73CFEE2041F04D875E878D859E85FC
:101F40000E94FA0C81114DCFC8010E94B10C55CFEF
:101F50001F93CF93DF93CDB7DEB72C970FB6F894CE
:101F6000DEBF0FBECDBF4F83588769877A878B87C7
:101F70009C87CE0107960E94E20D882309F442C097
:101F80009F8188852A853B85232B39F08F3F19F463
:101F900081E09F3F19F080E001C081E080FD08C032
:101FA0004F81588569857A858B859C850E94380D7F
:101FB00016E08091860190918701891709F467C026
:101FC000819FC001112488579E4F0E94E20D8823F3
:101FD00009F45DC0E09186011E9FF0011124E857CD
:101FE000FE4F4081518162817381848195810E947D
:101FF000380D8091860190E0019687709927809333
:102000008601D7CF86E0FE013796DE01119601905A
:102010000D928A95E1F79F8188852A853B85232B40
:1020200039F08F3F19F481E09F3F19F080E001C043
:1020300081E080FDBDCF2091870130E0C90101968C
:1020400087709927409186014817190699F096E004
:10205000929FD001939FB00D1124A857BE4FFE014F
:10206000319601900D929A95E1F7809387010E9435
:10207000480D9ECF0E94F60C1092870110928601A7
:1020800086E0E8EBF1E0DF011D928A95E9F72C96F6
:102090000FB6F894DEBF0FBECDBFDF91CF911F9179
:1020A0000895EF92FF920F931F93CF93DF938C01CC
:1020B000892B81F0F12CEE24E394E8012196F801BC
:1020C0008491843770F4843008F05FC08130B1F0BF
:1020D0008230A1F1DF91CF911F910F91FF90EF908E
:1020E0000895853709F44CC008F43DC09CE7980F6B
:1020F000903780F78F770E94310A49C00E5F1F4FDB
:10210000FE01849190E2980F983060F48770FE2D64
:1021100001C0FF0F8A95EAF78F2F0E94B1120E942B
:10212000D81202C00E9471098F2D815030F2EFE960
:10213000FFE03197F1F700C00000F7CF0E5F1F4FAF
:10214000FE01849190E2980F983050F48770FE2D34
:1021500001C0FF0F8A95EAF78F2F0E94B712DFCFD9
:102160000E94310AE1CF0E5F1F4FFE01C491C150A2
:10217000D8F28FE99FE00197F1F700C00000F7CF98
:102180000E5F1F4FFE01F490CFCF0E9471098E01A8
:10219000CBCF08950E94C9106093C2017093C30110
:1021A0008093C4019093C5010C94E20C08950C94A3
:1021B000CA100F931F930091C2011091C301209187
:1021C000C4013091C501602B712B822B932B1F9181
:1021D0000F910C94CA100F931F930091C20110919C
:1021E000C3012091C4013091C50160237123822372
:1021F00093231F910F910C94CA100F931F9300917A
:10220000C2011091C3012091C4013091C501602722
:102210007127822793271F910F910C94CA100C9459
:10222000C9100E940F116093BE017093BF0180938B
:10223000C0019093C1010C94E20C60E070E0CB010E
:102240000C9411110F931F9341E050E060E070E097
:102250008A019B0104C0000F111F221F331F8A95A2
:10226000D2F7C901B8011F910F910C9411110F936E
:102270001F9341E050E060E070E004C0440F551F40
:10228000661F771F8A95D2F78091BE019091BF019A
:10229000A091C001B091C1018A019B01082B192BAB
:1022A0002A2B3B2BC901B8011F910F910C941111DE
:1022B0000F931F9341E050E060E070E004C0440FD2
:1022C000551F661F771F8A95D2F7CB01BA0160951B
:1022D0007095809590950091BE011091BF0120915D
:1022E000C0013091C10160237123822393231F9188
:1022F0000F910C9411110F931F9341E050E060E097
:1023000070E004C0440F551F661F771F8A95D2F7EF
:102310008091BE019091BF01A091C001B091C10117
:102320008A019B01082719272A273B27C901B801E1
:102330001F910F910C9411110F931F930091BE01E7
:102340001091BF012091C0013091C101602B712B10
:10235000822B932B1F910F910C9411110F931F93AC
:102360000091BE011091BF012091C0013091C101C7
:1023700060237123822393231F910F910C941111D9
:102380000F931F930091BE011091BF012091C001D6
:102390003091C10160277127822793271F910F91E8
:1023A0000C9411110895BF92CF92DF92EF92FF9299
:1023B0000F931F93CF93DF938C01C090BE01D090F9
:1023C000BF01E090C001F090C1018091C2019091E5
:1023D000C301A091C401B091C501C82AD92AEA2A33
:1023E000FB2ACFE1D0E0BC2ED701C6010C2E04C0E1
:1023F000B695A795979587950A94D2F780FD0EC05C
:10240000219788F7B12C8B2DDF91CF911F910F91E0
:10241000FF90EF90DF90CF90BF900895B8018C2F80
:102420000E94F005019761F3EECFCF93DF93EC01AB
:102430000E94D311BE01DF91CF910C94F005CB0126
:102440000C9415128091C601859585958595089502
:102450008091C6018770089598E0899F90011124AA
:10246000622B6093C6010C9437119091C601809540
:1024700089238093C601282F277061F4282F082E06
:10248000000C330B9217130629F0859585958595D9
:102490000C94581108959091C601977081E009F449
:1024A00080E008952091020130910301F9013296F4
:1024B0009FEF40E05191851751F09F3F19F4511162
:1024C00001C0942F4F5F4630A9F79F3F09F408954C
:1024D000290F311D97FD3A95F901828308952091C6
:1024E000020130910301F9013296285F3F4F91912B
:1024F000891303C0DF0111971C92E217F307B9F7A4
:10250000089581E090E0E0910201F0910301E80F6D
:10251000F91F1082019688309105A9F708959091CE
:10252000D201892B8093D2010895982F90958091A4
:10253000D20189238093D20108951092D201089587
:102540009091D101892B8093D1010895982F909576
:102550008091D10189238093D10108951092D101F6
:1025600008959091D001892B8093D0010895982FE0
:1025700090958091D00189238093D0010895109285
:10258000D00108958093C70108951092C70108955E
:102590002091020130910301F9013196285F3F4FEC
:1025A00080E0919191118F5FE217F307D1F70895C1
:1025B000E0910201F09103018091D2018083E091CA
:1025C0000201F091030180819091D101892B8083D8
:1025D000E0910201F091030180819091D001892B5B
:1025E00080839091C701992361F0E0910201F091FD
:1025F00003018081892B80830E94C812811110926F
:10260000C70180910201909103010C9458086DEE6E
:102610007EEF90E080E00E94C92060E082E090E0E0
:102620000E94B72060E083E090E00E94B72060E065
:1026300084E090E00E94B72060E085E090E00C9498
:10264000B72090E080E00E94B12021E08D3E9E4FB7
:1026500009F020E0822F089582E090E00C94A920F8
:1026600083E090E00C94A92084E090E00C94A920F1
:10267000682F84E090E00C94B7208091F5018430BD
:1026800039F11092D40188E190E020E40FB6F8947B
:10269000A895809360000FBE2093600080E00E94A8
:1026A000CE0583B7817F846083BF83B7816083BF9A
:1026B0007894889583B78E7F83BF0FB6F894A895DA
:1026C00080916000886180936000109260000FBE6E
:1026D000089508950895CF930E9469130E94F3020C
:1026E0000E946A13C0E08C2F0E943303811105C041
:1026F000CF5FCC30C1F7CF91089581E0FCCF0E942D
:10270000F60C0E944C080C94CE051F920F920FB647
:102710000F9211248F939F93AF93BF938091D40115
:10272000811113C08091EB019091EC01A091ED011A
:10273000B091EE014196A11DB11D8093EB019093E4
:10274000EC01A093ED01B093EE01BF91AF919F9189
:102750008F910F900FBE0F901F90189582E084BD4F
:1027600093E095BD9AEF97BD80936E0008952FB7C3
:10277000F8948091EB019091EC01A091ED01B09162
:10278000EE012FBF0895CF92DF92EF92FF920F9349
:102790001F932FB7F8944091EB015091EC01609199
:1027A000ED017091EE012FBF6A017B01EE24FF2441
:1027B0008C0130E020E0C016D106E206F30650F0AE
:1027C000481B590BCA011F910F91FF90EF90DF90AA
:1027D000CF90089541505109F3CF78941F920F92F2
:1027E0000FB60F9211248F939F93AF93BF93809155
:1027F000EB019091EC01A091ED01B091EE010196F9
:10280000A11DB11D8093EB019093EC01A093ED010C
:10281000B093EE01BF91AF919F918F910F900FBE3A
:102820000F901F90189587E797E790930108809382
:10283000000888E19AE00FB6F894A89580936000AC
:102840000FBE90936000FFCF0E942113811102C040
:102850000E9407130E942C138093D3010E9434130B
:1028600090E09093F0018093EF010E943013682F65
:1028700070E090E080E00C94D7108091D70180FF49
:1028800012C06091070185E0689FB0011124759521
:1028900067957595679560387105A8F5611571059F
:1028A000A1F1862F089581FF09C06091070185E09D
:1028B000689FB001112475956795EDCF82FF07C021
:1028C0006091070185E0689FB0011124E4CF209159
:1028D000D8012223A9F0909106016091070185E0BB
:1028E000689FB00111242917B0F6269FA001279FE9
:1028F000500D1124692F70E0CA010E947B20CBCFBC
:1029000065E070E0CECF8FE7089581E00895809173
:10291000D70180FF0CC06091050170E07595679547
:10292000759567956115710549F1862F089581FFA9
:1029300006C06091050170E075956795F3CF6091D1
:10294000050182FD0BC09091D8019923A1F06091FF
:10295000040180910501961738F0682F70E0603807
:10296000710500F38FE70895899FC001112470E07D
:102970000E947B20F4CF61E070E0D7CF81E0089522
:10298000803F31F40E943D1481958093DB010895CE
:10299000813F19F40E943D14F8CF823F31F40E9428
:1029A0003D1481958093DA010895833F19F40E94C4
:1029B0003D14F8CF893F29F40E9487148093DC01ED
:1029C00008958A3F21F40E9487148195F7CF8B3FA9
:1029D00031F40E94871481958093DD0108958C3F26
:1029E00019F40E948714F8CF843F31F48091D90103
:1029F00081608093D9010895853F21F48091D901A8
:102A00008260F7CF863F21F48091D9018460F1CFB5
:102A1000873F21F48091D9018860EBCF883F21F472
:102A20008091D9018061E5CF8D3F31F48091D7014C
:102A300081608093D70108958E3F21F48091D70162
:102A40008260F7CF8F3FB9F78091D7018460F1CFD3
:102A5000803FC1F48091DB0187FD1092DB01809102
:102A6000DA0181110EC08091DB0181110AC08091D1
:102A7000DC01811106C08091DD01811102C010923C
:102A8000D8010895813F29F48091DB0118162CF3B9
:102A9000E6CF9091DA01823F29F497FFE0CF1092C0
:102AA000DA01DDCF833F19F41916CCF3D8CF893F73
:102AB00039F48091DC01181694F61092DC01CFCF26
:102AC0008A3F29F48091DC0187FFC9CFF6CF8B3F85
:102AD00039F48091DD0187FFC2CF1092DD01BFCFB5
:102AE0008C3F29F48091DD011816BCF3B8CF843FE8
:102AF00031F48091D9018E7F8093D901B0CF853F89
:102B000021F48091D9018D7FF7CF863F21F4809108
:102B1000D9018B7FF1CF873F21F48091D901877F45
:102B2000EBCF883F21F48091D9018F7EE5CF8D3F97
:102B300031F48091D7018E7F8093D70190CF8E3F63
:102B400021F48091D7018D7FF7CF8F3F09F087CF98
:102B50008091D7018B7FF0CF89ED91E00E946308CF
:102B60000E94B7139093D6018093D50108951F93C7
:102B7000CF93DF938091D5019091D6010E94C3132A
:102B8000AC019091D8012091080130E0911106C06C
:102B9000209109018AE0289F9001112442175307D0
:102BA00080F08091DA01C091DB011091DC01D091BD
:102BB000DD0181110AC0C11178C0111176C0D11197
:102BC00074C0DF91CF911F9108959F3F19F09F5FCF
:102BD0009093D801181624F40E943D148093DA01D2
:102BE0008091DA0187FF05C00E943D148195809392
:102BF000DA011C1624F40E943D148093DB018091BD
:102C0000DB0187FF05C00E943D1481958093DB01A5
:102C10006091DA01662331F1C091DB01CC2311F11F
:102C2000062E000C770B880B990B0E94821F23E362
:102C300033E343E35FE30E94E61F0E944A1F609371
:102C4000DA016C2FCC0F770B880B990B0E94821F37
:102C500023E333E343E35FE30E94E61F0E944A1F3E
:102C60006093DB01111624F40E9487148093DC0129
:102C70008091DC0187FF05C00E94871481958093B5
:102C8000DC011D1624F40E9487148093DD018091DD
:102C9000DD0187FF05C00E94871481958093DD01C7
:102CA000DF91CF911F910C94AC159F3F09F08FCF0E
:102CB000A0CF85E0E9EDF1E0DF011D928A95E9F70B
:102CC0001092D8011092D7010895833081F128F431
:102CD000813059F08230D1F00895853009F449C02F
:102CE000B8F1863009F456C0089580910901482F43
:102CF000460F5527551F4F3F510524F4680F609329
:102D0000090108958FEF80930901089580910801CA
:102D1000482F460F5527551F4F3F510524F4680F84
:102D20006093080108958FEF8093080108958091C2
:102D30000701482F460F5527551F4F3F510524F4D3
:102D4000680F6093070108958FEF8093070108953E
:102D500080910601482F460F5527551F4F3F5105BB
:102D600024F4680F6093060108958FEF80930601A5
:102D7000089580910501482F460F5527551F4F3F55
:102D8000510524F4680F6093050108958FEF809337
:102D90000501089580910401482F460F5527551FBE
:102DA0004F3F510524F4680F6093040108958FEF9D
:102DB000809304010895833011F128F4813049F0A3
:102DC000823091F00895853081F120F18630C1F193
:102DD000089580910901681720F4861B80930901EA
:102DE000089510920901089580910801681720F450
:102DF000861B809308010895109208010895809120
:102E00000701681720F4861B80930701089510922C
:102E10000701089580910601681720F4861B8093AE
:102E20000601089510920601089580910501681722
:102E300020F4861B809305010895109205010895E2
:102E400080910401681720F4861B80930401089583
:102E50001092040108950F931F9341E050E060E049
:102E600070E08A019B0104C0000F111F221F331F55
:102E70008A95D2F7C901B8010E94D7101F910F910E
:102E80000C94F60C8732A8F58E3108F07BC08E309A
:102E900009F46DC058F4873009F45AC08B3009F436
:102EA0004BC0863009F44AC080E00895863109F4A9
:102EB00043C068F48031C1F79091D301892F877F97
:102EC00093FF88608093D30183FD0FC035C08931A3
:102ED00099F18B3149F79091D301892F8D7F91FF23
:102EE00082608093D30181FF27C08091D3018160EC
:102EF0003BC0883309F150F4893221F0853311F059
:102F0000873291F680E00E942B1716C08334D1F3EC
:102F100020F48A3348F28953F6CF883429F60E9488
:102F2000F60C2FEF83ED90E3215080409040E1F7C5
:102F300000C000000E94131481E008958091D30125
:102F4000817F8E7F8093D30181E08093DF0108959C
:102F50009091D301892F8E7F90FF81608093D30160
:102F600080FDEACF897F877F8093D301E5CF909161
:102F7000D301892F8B7F92FF84608093D30182FDE0
:102F8000B4CFDACF8D51BFCF80E008950C94C41731
:102F90008E518A3030F4E82FF0E0E95DFE4F8081F9
:102FA000089580E00895CF93C82F8091DF0181308C
:102FB000C9F030F08230D9F11092DF0180E010C00A
:102FC000E0910201F091030180818232B9F78C2FE8
:102FD0000E94C41781111BC08C2F0E944217817060
:102FE000CF910895E0910201F09103018081823236
:102FF00071F38C2F0E94C617811110C0C43181F06B
:1030000048F4CB3059F0C03171F080E0E8CF81E076
:1030100090E0E5CFC93221F0C833B9F781E0DFCFC6
:103020001092DF01F2CF82E08093DF01F7CFC93247
:1030300019F188F4C43101F120F4C73081F181E045
:10304000CFCF82EE8C0F8630D0F78C2F0E94C8171E
:103050008093DE01F4CFCE3401F140F46AE0CB344A
:1030600071F78091DE010E946516E9CFC13579F0D4
:1030700061E0C235B1F3E3CF8091DE01882319F01E
:103080001092DE01DCCF81E08093DF01A9CF61E007
:103090008091DE010E94DB16D2CF6AE0F9CF8EE18B
:1030A0008093090182E3809308018AE080930701FD
:1030B00084E18093060188E08093050188E2809393
:1030C0000401BDCF8091E80108950F931F93CF9322
:1030D000DF9300D01F92CDB7DEB78C010E94A21AF9
:1030E000823011F0853019F583E089831B830A83D0
:1030F0008093E9008FEF9091E800815095FD06C024
:1031000095ED9A95F1F700008111F5CF8091E800D7
:1031100085FF0DC050E040E063E070E0CE01019615
:103120000E94BF1A8091E8008E778093E8000F908C
:103130000F900F90DF91CF911F910F910895CF9332
:10314000DF9300D01F92CDB7DEB72091F501243078
:1031500031F522E02983805891099B838A8383E09B
:103160008093E9008FEF9091E800815095FD06C0B3
:1031700095ED9A95F1F700008111F5CF8091E80067
:1031800085FF0DC050E040E063E070E0CE010196A5
:103190000E94BF1A8091E8008E778093E8000F901C
:1031A0000F900F90DF91CF910895CF93DF93EC01B3
:1031B0000E94A21A823011F08530F9F482E08093E7
:1031C000E9008FEF9091E800815095FD06C095EDE4
:1031D0009A95F1F700008111F5CF8091E80085FF05
:1031E0000CC050E040E065E070E0CE010E94BF1AE4
:1031F0008091E8008E778093E800DF91CF91089569
:10320000CF93DF93EC010E94A21A823011F0853037
:1032100039F581E08093E9008FEF9091E8008150CB
:1032200095FD06C095ED9A95F1F700008111F5CF57
:103230008091E80085FF14C050E040E068E070E055
:10324000CE010E94BF1A8091E8008E778093E8003B
:1032500088E0FE01A0EEB1E001900D928A95E1F7C1
:10326000DF91CF9108958091F401811109C00E94EE
:103270004F1C0E94AC1C8091E20084608093E200AD
:1032800008951092F4010895089508950C947F1301
:1032900042E061EC81E00E94CD1B42E061EC82E003
:1032A0000E94CD1B42E061EC83E00C94CD1B809129
:1032B000F701833009F452C030F4813059F1823083
:1032C00009F48EC008958A3009F47AC08B3009F46D
:1032D00060C0893009F041C08091F6018132E9F582
:1032E0008091FA019091FB01892BB9F58091E8005A
:1032F000877F8093E8008091E80082FF2AC0809158
:10330000F1008093E8018091E8008B778093E800DA
:103310000C94011C8091F601813AF9F48091E80047
:10332000877F8093E8008091FA019091FB01892BBF
:1033300061F468E080EE91E070E00E940E1B8091E5
:10334000E8008B778093E800089560E090E080E0EB
:10335000F3CF8091F5018111CECF08958091F601D0
:10336000813AD9F78091FA019091FB01892BA9F755
:103370008091E800877F8093E8008091E80080FFDB
:10338000FCCF809114018093F1008091E8008E774A
:10339000BDCF8091F601813201F78091FA019091C1
:1033A000FB01892BD1F68091E800877F8093E800AC
:1033B0000E94011C8091F801809314010C94F60C7A
:1033C0008091F601813249F68091E800877F8093F1
:1033D000E8000E94011C8091F9018093E9010895A1
:1033E0008091F601813A09F0B8CF8091E800877F9B
:1033F0008093E8008091E80080FFFCCF8091E90194
:10340000C2CF84B7877F84BF0FB6F894A895809108
:103410006000886180936000109260000FBE80E8B9
:1034200080936100109261000E949A080E944F1CD4
:103430000E94AC1C8091E20084608093E20078944A
:103440000E942E1F0E949C088AE091E00E9447087B
:103450008091F501853019F00E94A208F9CF0E94F1
:103460003D138091F301882399F30E946B13882305
:1034700079F30E94A91AECCF292F33272330310585
:1034800079F158F421303105F1F02230310519F18C
:1034900090E080E030E020E01AC02132310599F15F
:1034A00022323105A9F7633098F770E0FB01EE0F87
:1034B000FF1FEC5CFE4F208131816F5C7E4FFB0172
:1034C000808190E004C082E190E022E632E0FA01DF
:1034D00031832083089584E590E02EE032E0F7CF39
:1034E00099278130910561F028F0029789F6ECEC7C
:1034F000F1E002C0EAE0F2E0849190E09F01E7CFC2
:10350000E0E0F2E0F9CF633008F0C2CFE62FF0E060
:10351000EE0FFF1FE65CFE4F2081318189E090E0D5
:10352000D6CF0895CF93C82F0E94911AC093EA0175
:10353000CF9108958091F501843011F081E00895D4
:1035400082E008958091EA01811102C00C949A1AD8
:10355000089580E189BD82E189BD09B400FEFDCFF7
:103560008091D8008F7D8093D8008091E0008260A8
:103570008093E0008091E00081FDFCCF0895AF9240
:10358000BF92CF92DF92FF920F931F93CF93DF935F
:103590006C01EB018A010E94201CF82E811123C0CE
:1035A0000115110539F0F80180819181C81BD90BF3
:1035B000C80ED91EB12CA12C2097A9F08091E8004B
:1035C00085FD22C08091E8008E778093E800011588
:1035D0001105A1F0F80180819181A80EB91EB18278
:1035E000A08285E0F82E8F2DDF91CF911F910F9152
:1035F000FF90DF90CF90BF90AF9008950E94201C65
:103600008823D1F2F82EEFCFF60181916F018093DC
:10361000F1002197FFEFAF1ABF0ACECFFC018091D6
:10362000FC019091FD0186179707A0F061157105C7
:1036300029F49091E8009E779093E80090E061155E
:10364000710551F4911108C08091E80082FF35C0E6
:1036500080E00895BC01F2CF8091F5018823C9F183
:103660008530C9F18091E80083FD31C08091E80088
:1036700082FDEACF8091E80080FFE1CF2091F30046
:103680008091F200322F282F6115710519F0283032
:10369000310558F091E02830310509F090E0209193
:1036A000E8002E772093E800CACF81918093F10043
:1036B000615071092F5F3F4FE7CF8091F50188235B
:1036C00041F0853041F08091E80083FFBDCF81E07B
:1036D000089582E0089583E00895FC018091FC0143
:1036E0009091FD0186179707A0F06115710529F4E7
:1036F0008091E8008E778093E80090E06115710575
:1037000051F4911108C08091E80082FF36C080E03A
:103710000895BC01F2CF8091F5018823D1F1853065
:10372000D1F18091E80083FD32C08091E80082FDF4
:10373000EACF8091E80080FFE1CF2091F3008091F3
:10374000F200322F282F6115710519F0283031054C
:1037500058F091E02830310509F090E08091E800C0
:103760008E778093E800CACF84918093F1003196E0
:10377000615071092F5F3F4FE6CF8091F50188239B
:1037800041F0853041F08091E80083FFBCCF81E0BB
:10379000089582E0089583E00895982F973028F0E7
:1037A0008F708093E90081E008959093E900242FC1
:1037B000762F50E0981731F07091EC002091ED00D9
:1037C0005091F00021FD02C09F5FE8CF3091EB00E7
:1037D0003E7F3093EB003091ED003D7F3093ED0064
:1037E0003091EB0031603093EB007093EC0020934C
:1037F000ED005093F0002091EE0027FDE5CF80E032
:1038000008958091F60187FF13C08091E80082FF40
:1038100006C08091E8008B778093E80004C0809117
:10382000F5018111F2CF08958091F5018823D9F334
:103830008091E80080FFF8CF8091E8008E77ECCF90
:103840002091E4003091E50085E69091EC0090FF36
:1038500006C09091E80090FF06C080E00895909126
:10386000E80092FDFACF9091F501992391F09530FF
:1038700091F09091EB0095FD10C04091E4005091C3
:10388000E5002417350709F381509A01F1F684E029
:10389000089582E0089583E0089581E008950E94EC
:1038A000BD1C0E94C51CE0EEF0E080818160808339
:1038B000E8EDF0E080818F77808319BCA7EDB0E060
:1038C0008C918E7F8C9380818F7E80831092F40107
:1038D00008950F931F93CF93DF930E94BD1C0E9406
:1038E000C51CC8EDD0E088818F7788838881806887
:1038F000888388818F7D888319BC1092F50110928E
:10390000F1011092F3011092F20100EE10E0F801C3
:1039100080818B7F808388818160888342E060E042
:1039200080E00E94CD1BE1EEF0E080818E7F8083FD
:10393000E2EEF0E080818160808380818860808316
:10394000F80180818E7F8083888180618883DF9108
:10395000CF911F910F910895E8EDF0E080818F7E67
:103960008083E7EDF0E080818160808384E082BF26
:1039700081E08093F4010C94691CE8EDF0E0808113
:103980008E7F80831092E20008951092DA001092E8
:10399000E10008951F920F920FB60F9211242F93FA
:1039A0003F934F935F936F937F938F939F93AF93C7
:1039B000BF93EF93FF938091E10082FF0BC0809152
:1039C000E20082FF07C08091E1008B7F8093E100DD
:1039D0000E942D1F8091DA0080FF19C08091D800CD
:1039E00080FF15C08091DA008E7F8093DA0080918D
:1039F000D90080FF94C080E189BD82E189BD09B40E
:103A000000FEFDCF81E08093F5010E943319809183
:103A1000E10080FF19C08091E20080FF15C0809115
:103A2000E2008E7F8093E2008091E20080618093CB
:103A3000E2008091D80080628093D80019BC85E0B4
:103A40008093F5010E9445198091E10084FF29C00F
:103A50008091E20084FF25C080E189BD82E189BDBB
:103A600009B400FEFDCF8091D8008F7D8093D800EF
:103A70008091E1008F7E8093E1008091E2008F7E53
:103A80008093E2008091E20081608093E200809167
:103A9000F101882309F449C084E08093F5010E9474
:103AA00046198091E10083FF29C08091E20083FFE5
:103AB00025C08091E100877F8093E10082E08093C0
:103AC000F5011092F1018091E1008E7F8093E10079
:103AD0008091E2008E7F8093E2008091E20080611D
:103AE0008093E20042E060E080E00E94CD1B809184
:103AF000F00088608093F0000E944419FF91EF91DC
:103B0000BF91AF919F918F917F916F915F914F91F5
:103B10003F912F910F900FBE0F901F90189519BCD9
:103B20001092F5010E94411972CF8091E30087FD48
:103B300002C081E0B2CF83E0B0CF1F920F920FB6E8
:103B40000F9211242F933F934F935F936F937F9323
:103B50008F939F93AF93BF93CF93EF93FF93C091B6
:103B6000E900CF708091EC001092E9008091F000A4
:103B7000877F8093F00078940E94D91D1092E9000D
:103B80008091F00088608093F000C093E900FF917D
:103B9000EF91CF91BF91AF919F918F917F916F9155
:103BA0005F914F913F912F910F900FBE0F901F90FB
:103BB00018951F93CF93DF93CDB7DEB7AA970FB6B3
:103BC000F894DEBF0FBECDBFE6EFF1E08091F100CB
:103BD000819321E0EE3FF207C9F70E9457198091C7
:103BE000E80083FF42C08091F6019091F7019A307E
:103BF00008F03BC0E92FF0E0E050F24E0C948F202B
:103C00000A1E2E1E351E2E1E351E891EAB1E351E8B
:103C1000001F0D1F803879F0823839F58091FA0144
:103C20008F708093E9008091EB0085FB882780F9F5
:103C30001092E90006C08091F2019091F301911178
:103C400082609091E800977F9093E8008093F10064
:103C50001092F1008091E8008E772DC0282F2D7FE3
:103C600021F48823D1F0823059F18091E80083FF5C
:103C70000AC08091E800877F8093E8008091EB0084
:103C800080628093EB00AA960FB6F894DEBF0FBE59
:103C9000CDBFDF91CF911F9108958091F8018130C0
:103CA00021F7933009F080E08093F3011092E9004E
:103CB0008091E800877F8093E8000E94011CD5CFA7
:103CC0008091F8018111F2CF8091FA018F7069F231
:103CD0008093E9002091EB0020FFE8CF933031F48E
:103CE0008091EB0080628093EB00E0CF9091EB003D
:103CF00090619093EB0021E030E001C0220F8A95A3
:103D0000EAF72093EA001092EA008091EB008860C5
:103D1000EACF8111AACF1091F8011F778091E300BB
:103D20008078812B8093E3008091E800877F8093E7
:103D3000E8000E94011C8091E80080FFFCCF809188
:103D4000E30080688093E30083E0111101C082E00A
:103D50008093F5018ACF8058823008F086CF809119
:103D6000F8019091F9018C3D23E09207A1F583E0E1
:103D70008A838AE289834FB7F894DE01139620E0A4
:103D80003EE051E2E32FF0E050935700E49120FF32
:103D900003C0E295EF703F5FEF708E2F90E0EA3046
:103DA000C0F0C7968D939D932F5F243159F74FBF75
:103DB0008091E800877F8093E8006AE270E0CE019E
:103DC00001960E940E1B8091E8008B778093E8009B
:103DD0004CCFC096E7CFAE014F5F5F4F6091FA01C5
:103DE0000E943C1ABC01892B09F43FCF9091E80056
:103DF000977F9093E80089819A810E946D1BE3CFA1
:103E0000803809F032CF8091E800877F8093E80006
:103E10008091F1018093F1001DCF811126CF909107
:103E2000F801923008F021CF8091E800877F8093DD
:103E3000E8009093F1010E94011C8091F101882318
:103E400031F084E08093F5010E9448190ECF8091F3
:103E5000E30087FDF6CF81E0F5CF0895CF93809101
:103E6000F501882399F0C091E900CF708091EC00B2
:103E700080FD0EC080E0C82B1092E9008091E80020
:103E800083FD0E94D91DCF70C093E900CF910895A2
:103E900080E8F1CF0E94511F6894B1110C94E01F8B
:103EA00008950E94C51F88F09F5798F0B92F992751
:103EB000B751B0F0E1F0660F771F881F991F1AF015
:103EC000BA95C9F714C0B13091F00E94DF1FB1E07C
:103ED00008950C94DF1F672F782F8827B85F39F07B
:103EE000B93FCCF3869577956795B395D9F73EF4AE
:103EF00090958095709561957F4F8F4F9F4F089556
:103F0000E89409C097FB3EF4909580957095619573
:103F10007F4F8F4F9F4F9923A9F0F92F96E9BB2729
:103F20009395F695879577956795B795F111F8CFA5
:103F3000FAF4BB0F11F460FF1BC06F5F7F4F8F4F10
:103F40009F4F16C0882311F096E911C0772321F006
:103F50009EE8872F762F05C0662371F096E8862F9E
:103F600070E060E02AF09A95660F771F881FDAF7F5
:103F7000880F9695879597F9089557FD9058440FA7
:103F8000551F59F05F3F71F04795880F97FB991FB8
:103F900061F09F3F79F08795089512161306140675
:103FA000551FF2CF4695F1DF08C016161706180602
:103FB000991FF1CF86957105610508940895E894DD
:103FC000BB2766277727CB0197F908950E94F91F31
:103FD0000C946A200E945C2038F00E94632020F03C
:103FE000952311F00C9453200C94592011240C9417
:103FF000E01F0E94BD1F70F3959FC1F3950F50E025
:10400000551F629FF001729FBB27F00DB11D639F8A
:10401000AA27F00DB11DAA1F649F6627B00DA11D30
:10402000661F829F2227B00DA11D621F739FB00DD6
:10403000A11D621F839FA00D611D221F749F332746
:10404000A00D611D231F849F600D211D822F762FDF
:104050006A2F11249F5750409AF0F1F088234AF0BC
:10406000EE0FFF1FBB1F661F771F881F9150504028
:10407000A9F79E3F510580F00C9453200C94E01F4B
:104080005F3FE4F3983ED4F3869577956795B795AF
:10409000F795E7959F5FC1F7FE2B880F911D9695C9
:1040A000879597F9089597F99F6780E870E060E039
:1040B00008959FEF80EC089500240A9416161706C1
:1040C00018060906089500240A9412161306140609
:1040D00005060895092E0394000C11F4882352F06C
:1040E000BB0F40F4BF2B11F460FF04C06F5F7F4F24
:1040F0008F4F9F4F089597FB072E16F4009407D01B
:1041000077FD09D00E94952007FC05D03EF49095DC
:1041100081959F4F0895709561957F4F0895EE0F9B
:10412000FF1F0590F491E02D0994AA1BBB1B51E1E0
:1041300007C0AA1FBB1FA617B70710F0A61BB70B17
:10414000881F991F5A95A9F780959095BC01CD01BC
:104150000895F999FECF92BD81BDF89A992780B54F
:104160000895A8E1B0E042E050E00C94D120262F61
:10417000F999FECF92BD81BDF89A019700B402165D
:1041800039F01FBA20BD0FB6F894FA9AF99A0FBE0B
:1041900008950196272F0E94B8200C94B720DC01C7
:1041A000CB01FC01F999FECF06C0F2BDE1BDF89A42
:1041B000319600B40D9241505040B8F70895F894EC
:0241C000FFCF2F
:1041C2000501C8012808140A321E62180019D51800
:1041D2009F18651801946697C63435F6F731333265
:1041E200360000000000000102030405060708096A
:1041F20000404D36F702AA0274022002390252022E
:00000001FF
